S01800006275696C642F6D6963617A2F6D61696E2E73726563E5
S11300000C9449000C944E050C9458050C9462050C
S11300100C946C050C9476050C9480050C94EC06F9
S11300200C948A050C9468000C9468000C94B41623
S11300300C94900C0C9418050C942E050C94CC057F
S11300400C9407050C94C40E0C9468000C9468007E
S11300500C9468000C9468000C9468000C9468007C
S11300600C9423050C9468000C9468000C946800AC
S11300700C9468000C9468000C9468000C9468005C
S11300800C9468000C9468000C94680000081C1818
S1130090141011241FBECFEFD0E1DEBFCDBF11E09D
S11300A0A0E0B1E0E2E0F5E300E00BBF02C007909E
S11300B00D92A63EB107D9F713E0A6EEB1E001C058
S11300C01D92AD34B107E1F70E94F0140C94801A2C
S11300D00C9400008FB7F894992708958FBF089562
S11300E02F923F924F925F926F927F928F929F9244
S11300F0AF92BF92CF92DF92EF92FF920F931F9332
S1130100CF93DF93CDB7DEB729970FB6F894DEBF50
S11301100FBECDBF6FB76983F8942090430230902F
S11301204402409045025090460266247724882475
S11301302EE4A22E93E8B92ECC24DD24EE24FF2451
S113014000E010E0222D332D442D552D662D772D02
S1130150882D90E00E9452182A833B834C835D8350
S11301606E837F8388879987822E932EA42EB52E43
S11301702401350100E20E945019A22EB32EC42E90
S1130180D52EA301920156954795379527952A0DAB
S11301903B1D4C1D5D1D57FF05C05F772F5F3F4F13
S11301A04F4F5F4F209343023093440240934502E4
S11301B050934602E9818E2F99278FBFCA01B90156
S11301C029960FB6F894DEBF0FBECDBFDF91CF9155
S11301D01F910F91FF90EF90DF90CF90BF90AF9061
S11301E09F908F907F906F905F904F903F902F9053
S11301F00895FC0182819927582F442781819927EA
S1130200482B592BCA01892F992786958695837087
S113021090708230910559F08330910559F0892B03
S113022019F420E030E008C02CE93FEF05C022E0DB
S113023030E002C028E030E0CA0184E0989F812DBC
S1130240992711248230910559F08330910559F092
S1130250892B19F480E090E008C08CE99FEF05C079
S113026082E090E002C088E090E0280F391F2A5F06
S11302703F4FCF01820F931F0895282F9FB7F89403
S1130280662349F0E82FFF27E156FD4F808188233C
S113029011F021E006C0E22FFF27E156FD4F6083F5
S11302A020E0892F99278FBF822F99270895E82F5F
S11302B08FB7F894282F332790E0FF27E156FD4F9E
S11302C08081861709F491E02FBF892F992708951B
S11302D0882311F06E9A08956E980895882311F07A
S11302E06F9A08956F98089580E00E946801BA9A01
S11302F0BB98B99AB89A6C9A80E00E946E016B9888
S11303006A9881E00E946801709A8DB18C7F8DB9E2
S113031008950F931F93CF93DF93182F8FB7F894FB
S1130320C82FDD270C2F61E080E00E943D01882367
S113033021F0CFBF85E090E024C08091270188237D
S1130340A1F48091F101823081F409C082E08093AC
S1130350F101109227010E947401B89AC098109379
S1130360240180E00FBF99270CC08091F1018823FC
S113037069F38FB7F894992710929F028FBF81E099
S1130380F1CFDF91CF911F910F910895282F9FB73F
S1130390F894E82FFF27EB5EFD4F80818F3F81F4B7
S11303A0E0914B03E21771F40BC020933D0304C0AA
S11303B0FF27EB5EFD4F208320934B0320E007C013
S11303C025E005C080913D038F3F91F7EECF892F43
S11303D099278FBF822F992708951F93182F81E0A3
S11303E00E9468011FB9779BFECF8FB199271F9197
S11303F008958F929F92AF92BF92CF92DF92EF9225
S1130400FF920F931F93CF93DF938FB7F89499279D
S1130410C0904603D0904703809096029090970234
S1130420C0916C02D0916D022091FA013091FB01D0
S1130430EAE0AE2EB12CAC0EBD1E2A153B0508F425
S113044059018FBF7401EC0EFD1E86010C0F1D1F98
S113045014C0C114D10419F0F801808101C080E0F6
S11304600E94ED018114910411F0F701808321961B
S11304700894E11CF11C0F5F1F4FC5010197C817B9
S1130480D90738F381E00E946E019FB7F894C11434
S1130490D10431F0CC0EDD1EF60180818FB901C08C
S11304A01FB8D0936D02C0936C02892F99278FBF18
S11304B080E090E0DF91CF911F910F91FF90EF903A
S11304C0DF90CF90BF90AF909F908F9008952FB7FB
S11304D0F89433275093FB014093FA019093470318
S11304E080934603709397026093960210926D0274
S11304F010926C022FBF452B29F08FB10E94F90195
S11305009927089589E00E94C60180E090E008954B
S11305108FB7F89499271092A1028FBF0895EF9294
S11305200F931F93AE2D99E0899FF0011124EE588B
S1130530FD4F408351836283738304831583268331
S11305403783A17080858E7F8A2B826080878DE0BF
S11305500E94C6011F910F91EF9008957FB7F89400
S113056062B72091FD013091FE014091FF0150914D
S1130570000206B601FE0FC081B792B7280F311DE5
S1130580411D511D2F5F3F4F4F4F5F4F290F311DAD
S1130590411D511D04C0260F311D411D511D872FC2
S11305A099278FBFCA01B9010895AF92BF92CF9224
S11305B0DF92EF92FF920F931F93F82E5A016B0173
S11305C00E94AE02AB01BC01EE24960185018F2D81
S11305D00E948F021F910F91FF90EF90DF90CF90B8
S11305E0BF90AF900895DF92EF92FF920F931F9305
S11305F08FB7F894282F3327D22E91B782B746B7F6
S1130600981711F041FF02C02FBF6AC080916B029E
S11306108823E1F10E94AE02E0909B02F0909C02DC
S113062000919D0210919E0220910F0230911002C0
S113063040911102509112026E197F09800B910BA7
S1130640621773078407950720F010926B0271E01C
S11306501EC02E0D3F1D401F511F8091FD01909122
S1130660FE01A091FF01B0910002281B390B4A0B37
S11306705B0B273E31054105510540F4822F2230A2
S113068010F070E005C070E082E002C070E086EE19
S1130690682F615000B601FCFDCF82B7681709F4DA
S11306A06F5F2091FD013091FE014091FF01509157
S11306B00002DA01C9010196A11DB11D860F911D29
S11306C0A11DB11D82179307A407B50710F4622F6B
S11306D0609561BFDFBE772319F08CE00E94C601EC
S11306E01F910F91FF90EF90DF900895AFB7F894AA
S11306F0BB27E1E0E0936B0260939B0270939C0242
S113070080939D0290939E0220930F0230931002D7
S11307104093110250931202AFBF0E94F302089556
S113072080E88093130210923D02109240031092CD
S11307303C0310922B020895CF93DF93FC0115A67E
S1130740DC019E96ED011B821A82198280E886A73D
S1130750DF91CF9108958FB7F894609170027091F2
S113076071022CB53DB506B602FE04C06F5F7F4F23
S11307702CB53DB599278FBF88279927CB017727BB
S1130780662744275527622B732B842B952B0895BA
S1130790EF92FF920F931F930E94AB037B018C0196
S11307A020914D0230914E0240914F0250915002DF
S11307B08091480290914902A0914A02B0914B0263
S11307C0820F931FA41FB51FE216F3060407150733
S11307D030F082179307A407B50758F005C08217B5
S11307E09307A407B507E0F5E816F9060A071B07FF
S11307F0B8F59C01AD012E193F09400B510B213076
S113080060E8360760E0460760E0560768F180E07C
S113081090E8A0E0B0E0E80EF91E0A1F1B1FE0926A
S11308204D02F0924E0200934F021093500280E06A
S113083090E8AFEFBFEFE80EF91E0A1F1B1F205010
S1130840304840405040209348023093490240933E
S11308504A0250934B0220E030E840E050E014C0DC
S113086020E030E040E050E080934D0290934E024F
S1130870A0934F02B0935002109248021092490282
S113088010924A0210924B02A901B7012CB53DB552
S1130890C9018E199F0903968417950720F0B901A1
S11308A06D5F7F4F02C0640F751F6115710511F4F0
S11308B061E070E0615070407BBD6ABD80E186BF3D
S11308C087B7806187BF1F910F91FF90EF900895C4
S11308D00F931F930FB7F894112760934D027093F1
S11308E04E0280934F02909350022093480230931B
S11308F0490240934A0250934B020E94C8030FBF1F
S11309001F910F910895CF92DF92EF92FF920F9370
S11309101F93CF93DF938C01F62E6A01E22E8FB7DB
S1130920F894C82FDD2760E080E00E9457018823F7
S113093021F0CFBF80E090E01EC0CFBF0F0D111D8E
S1130940802F80680E94ED01F82E16950795802F60
S1130950807C0E94ED010E2D0AC0EE2DFF27E01BC6
S1130960F109EC0DFD1D80810E94ED010150002371
S1130970A1F78F2D9927DF91CF911F910F91FF90B0
S1130980EF90DF90CF90089597B79F7D97BF90E247
S113099096BF882319F08EB5806402C08EB58F7B14
S11309A08EBD87B7806287BF80E090E00895AF92E4
S11309B0BF92CF92DF92EF92FF920F931F93CF9348
S11309C0DF93CDB7DEB728970FB6F894DEBF0FBE1E
S11309D0CDBF20E070E0E0912101F091220132E1ED
S11309E04DE65CE46FE4809122019E2F28960FB6B9
S11309F0F894DEBF0FBECDBFDF91CF911F910F9151
S1130A00FF90EF90DF90CF90BF90AF9008951F922A
S1130A100F920FB60F9211248F9383B783BF00B642
S1130A2000FCFDCF8F910F900FBE0F901F90189573
S1130A3078941F920F920FB60F9211240F900FBE4D
S1130A400F901F90189578941F920F920FB60F92E3
S1130A5011240F900FBE0F901F90189578941F9239
S1130A600F920FB60F9211242F933F938F939F935E
S1130A702FB7F894332780917002909171020196F8
S1130A8090937102809370022FBF9F918F913F9139
S1130A902F910F900FBE0F901F9018951F920F92D9
S1130AA00FB60F9211240F900FBE0F901F90189540
S1130AB01F920F920FB60F9211240F900FBE0F903A
S1130AC01F9018951F920F920FB60F9211240F903A
S1130AD00FBE0F901F9018951F920F920FB60F9292
S1130AE011240F900FBE0F901F9018951F920F9214
S1130AF00FB60F9211240F900FBE0F901F901895F0
S1130B001F920F920FB60F9211240F900FBE0F90E9
S1130B101F9018951F920F920FB60F9211240F90E9
S1130B200FBE0F901F901895CF93DF93CDB7DEB70C
S1130B302C970FB6F894DEBF0FBECDBF8FB7F894D5
S1130B40282FAE014F5F5F4FDA01E5EAF2E088E05B
S1130B5001900D928150E1F780913E0290913F0205
S1130B608987892F99278A8780915102909152020F
S1130B708B87892F99278C872FBF2CE060E080E634
S1130B8091E00E9483042C960FB6F894DEBF0FBE4A
S1130B90CDBFDF91CF9108951F920F920FB60F92A0
S1130BA011242F933F934F935F936F937F938F936E
S1130BB09F93AF93BF93EF93FF9383B783BF00B625
S1130BC000FCFDCF81B799270196AA27BB27209166
S1130BD0FD013091FE014091FF0150910002280F68
S1130BE0391F4A1F5B1F2093FD013093FE01409380
S1130BF0FF015093000278940E94F302FF91EF9159
S1130C00BF91AF919F918F917F916F915F914F9120
S1130C103F912F910F900FBE0F901F9018950F9337
S1130C201F93182F0FB7F89461E080E00E943D01F4
S1130C30882371F510932401809127018823A9F555
S1130C408091F101823089F588E00CC00E94740122
S1130C508091F101882349F481E08093F10110929D
S1130C602C028AE00E94C6012AC080914C028F3F68
S1130C7031F5E0912601EE2311F11CC010922501FB
S1130C8004C0FF27E45BFD4F10821092260117C0B9
S1130C9081E090E002C0880F991F1A95E2F7209135
S1130CA0F001282B2093F0010AC08091F1018823E0
S1130CB0E1F6CCCF809125018F3F19F7DFCF802F4C
S1130CC099278FBF80E090E01F910F9108951F93A3
S1130CD083E00E9489019927182F882319F083E063
S1130CE00E940F06812F99271F9108951F93CF9378
S1130CF0DF93182F8FB7F894C82FDD2760E080E0CA
S1130D000E945701882321F0CFBF80E090E005C006
S1130D10CFBF812F0E94ED019927DF91CF911F91C1
S1130D200895EF92FF920F931F93CF93DF93182FA1
S1130D307B01042F8FB7F894C82FDD2760E080E093
S1130D400E945701882321F0CFBF80E090E014C0B7
S1130D50CFBF1064812F9927909356028093550238
S1130D600E94ED01182F402F5527B70180E090E035
S1130D700E946702812F9927DF91CF911F910F91D4
S1130D80FF90EF900895C0986091F8017091F90177
S1130D9041E08FE30E949106089582E090E09093F1
S1130DA026028093250281E080933D0220E030E01A
S1130DB080912401843011F421E030E0232B29F4C4
S1130DC084E00E948901882319F40E94C3060895CF
S1130DD084E00E940F0608951F920F920FB60F929F
S1130DE011242F933F934F935F936F937F938F932C
S1130DF09F93AF93BF93EF93FF93809125029091BC
S1130E002602019749F482E090E0909326028093B1
S1130E1025020E94CD0605C080912B028F5F80932E
S1130E202B02FF91EF91BF91AF919F918F917F9191
S1130E306F915F914F913F912F910F900FBE0F9043
S1130E401F9018951F938091F001882309F04BC0DF
S1130E50109124011F3F09F046C060E00E94570131
S1130E60882309F440C081E08093E2028091140257
S1130E708823E1F11092E20285E090E045C09230CF
S1130E8069F5C09A8091250120E030E08F3F11F48C
S1130E9021E030E0232BE9F4109327018F3F19F46C
S1130EA02FEF30E00DC0282F3327F901E45BFD4F0D
S1130EB08081809325018F3F11F4109326011083C4
S1130EC020932C0281E08093F1018AE00E94C60104
S1130ED005C0109327011092F10111C08091F10116
S1130EE0882369F00FC081E090E00EC08091270153
S1130EF09091F101882319F2923021F0EFCF80E034
S1130F000E94680180E090E01F9108951F93CF93A1
S1130F10DF939FB7F894C92FDD271C2F90912401EC
S1130F20981721F0CFBF81E090E03AC08FEF809313
S1130F3024013091F0013323F1F48FB7F894992709
S1130F4010929F028FBF0E942207CFBF11C020932F
S1130F50240181E090E002C0880F991F4A95E2F7CE
S1130F60809538233093F00188E00E94C6011FBFAA
S1130F7080E090E015C080E065E0E32FFF270E9449
S1130F80D319292F492F5527CF01042E02C0959537
S1130F9087950A94E2F780FDDACF822F8F5FEFCF37
S1130FA0DF91CF911F9108951F93CF93DF938FB754
S1130FB0F894C82FDD271C2F8091250290912602DA
S1130FC0892B29F484E00E948607CFBF1EC01092AB
S1130FD03D0280912B02882311F0B79904C00E9929
S1130FE008C0882319F0815080932B020E94CD06FB
S1130FF00BC081E090E0909326028093250210922A
S11310002B0284E00E9486071FBFDF91CF911F91BE
S113101008950E949003C09AC09888E00E947606C2
S113102088E00E947606C09A84E00E9486070E94A7
S1131030D4070895FF920F931F93CF93DF93F82E55
S11310408B018FB7F894C82FDD2760E080E00E9401
S11310505701882321F0CFBF80E090E00CC0CFBFC0
S11310608F2D0E94ED01812F99270E94ED01802F81
S11310700E94ED019927DF91CF911F910F91FF906D
S113108008951F931FB7F89480912A02882319F4B6
S113109060E070E009C060E080914503882309F4B2
S11310A061E081E06827772780914002882319F462
S11310B080E090E00AC090E08091A402882309F4C3
S11310C091E081E09827892F9927762F6627770F5B
S11310D0770F770F54E0880F991F5A95E1F7826EC6
S11310E09262682B792B81E10E941A08812F99273B
S11310F08FBF1F9108958FB7F89499276091E102EB
S11311008FBF85E0689FB0011124625D7E4F7064DB
S113111088E10E941A080895EF92FF921F93CF93DB
S1131120DF93E0904102F0904202F70182A59927F3
S1131130182F882309F41FE1C09880912902811790
S113114049F0612F77276F717070606E706885E168
S11311500E941A0810932902F70110818FB7F8949E
S1131160C82FDD2760E080E00E945701882311F03A
S1131170CFBF12C0CFBF8EE390E09093560280930E
S113118055028EE30E94ED011150412F552760E076
S113119070E0C7010E946702DF91CF911F91FF9019
S11311A0EF9008950F931F93CF93DF93EC010FB744
S11311B0F89411270E94F900FC018FE380830FBF8C
S11311C0109243031092420361E082E00E943D01C9
S11311D0882319F085E090E072C08091E3028F5F6C
S11311E08093E30281508B838FB7F894082F1127E3
S11311F062E081E00E945701882329F40FBF0E9416
S1131200880281E05BC08FB7F894992724E020938B
S1131210A0028FBFD0935C02C0935B020FBFFE019C
S11312203196818129819927982F88273327822B0A
S1131230932B80729C7C8983892F992781832981B0
S1131240982F882733272164822B932B8983892F16
S1131250992781831CA618A619A619AA18AA1FA63D
S113126080E88EA761E06093A30240915B025091F5
S11312705C028FB7F894282F33278091F201909164
S1131280F3018830910511F0019711F02FBF15C0BB
S113129082E090E09093F3018093F20160934C0319
S11312A050934202409341021092FC012FBF0E94CE
S11312B06706882311F40E948C0880E09927DF9147
S11312C0CF911F910F910895CF93DF93DA01422FAD
S11312D02D3118F082E090E05EC0ED018B876E83C3
S11312E0872F99278F832FB7F894332780913E0255
S11312F090913F022FBFFD018483892F9927858315
S11313002FB7F894332780912801909129012FBF9A
S11313108887892F992789873196818129819927FF
S1131320982F8827332720643868822B932B89834E
S1131330892F99278183435F4C934D5080912B01D2
S1131340882359F010922B01642FCD010E94D208FA
S11313509927282F8823A9F417C0842F99279093BD
S11313605A0280935902B093F701A093F6018EE0DC
S11313700E94C60180912B01882349F489E090E002
S11313800AC08FEF80932B01822F992704C01092FB
S1131390470280E090E0DF91CF91089510922301FD
S11313A0E0916E02F0916F02309721F08091410339
S11313B080FF08C081E080932301089581E00E94AA
S11313C0C601089520812D50332767817727762F12
S11313D0662786819927682B792BAF0183850E9424
S11313E06409882359F70895CF93DF93FB01DB0148
S11313F016968683892F9927ED01898386E0838752
S113140080916E0290916F02892B19F085E090E033
S11314102BC070936F0260936E02435F40834D5004
S113142080912301882319F480E090E01DC0838516
S1131430ED0169817727762F662726813327622B72
S1131440732B10922301242FAF010E946409992762
S1131450282F882339F081E08093230110926F02B2
S113146010926E02822F9927DF91CF9108951F93D6
S11314702091E7013091E8012F5F3F4F3093E8015D
S11314802093E7018091E6018823A1F511E01093F0
S1131490B9022093BB02832F99278093BA02E0916B
S11314A02101F0912201EE7FEA52FE4F60817181A9
S11314B08CEB92E00E94791A2091AF023327322FED
S11314C022278091AE0299278062282B392B209302
S11314D0AE02232F33272093AF024BE16DEA72E073
S11314E080919802909199020E94F409882311F442
S11314F01093E6011F9108958091E901833008F06B
S113150057C02091E7013091E8012F5F3F4F30939E
S1131510E8012093E7018091E601882309F04AC09D
S113152082E08093B9022093BB02832F9927809392
S1131530BA0280913702909138028093D102892FA8
S113154099278093D0028091390290913A02809336
S1131550D302892F99278093D2026DE272E08CEB3B
S113156092E00E94791A8091E9018F5F8093E901EA
S11315702091AF023327322F22278091AE02992780
S11315808062282B392B2093AE02232F33272093FC
S1131590AF024BE16DEA72E080919802909199025A
S11315A00E94F409882331F481E08093E6010895D0
S11315B01092E9010895EF920F931F938D5A924070
S11315C0C9F56623B9F51092E6018091EA018130EC
S11315D031F58091D9028823F9F082E08093EA0101
S11315E0809121019091220180FD0EC00E94AE02E3
S11315F0AB01BC0111E0E12E00E61AEE20E030E080
S113160083E00E948F0216C040E157E260E070E080
S113161082E00E94D5020EC00E94370A0BC08230BD
S113162049F48091D902882319F01092E90102C08B
S11316300E947C0A1F910F91EF9008951F93CF93FE
S1131640DF93142F80912301882389F4C0916E02C3
S1131650D0916F02C617D70751F410926F021092FF
S11316606E020E94CE09612FCE010E94DB0ADF9137
S1131670CF911F910895AF92BF92CF92DF92EF92D4
S1131680FF920F931F93CF93DF935B016C01C0E034
S1131690D0E0E2E7F2E0608561FF5AC02081318149
S11316A042815381E480F58006811781D601C5010A
S11316B0821B930BA40BB50B8E159F05A007B107D6
S11316C008F446C060FF03C06D7F608708C02E0D1C
S11316D03F1D401F511F2083318342835383C130F8
S11316E019F0C230D9F530C02091E7013091E801FA
S11316F02F5F3F4F3093E8012093E7018091E6018B
S1131700882361F51092B9022093BB02832F992795
S11317108093BA02E0912101F0912201EE7FEA5216
S1131720FE4F608171818CEB92E00E94791A4BE14B
S11317306DEA72E08FEF9FEF0E94F409882371F441
S113174081E08093E6010AC08FE00E94C60106C0D2
S113175021963996C430D10509F09DCF8DE00E94C1
S1131760C601DF91CF911F910F91FF90EF90DF9011
S1131770CF90BF90AF9008951F93182F81E090E011
S11317809093F3018093F201109214020E942207B5
S11317908FB7F89499271093EC018FBF84E00E94CF
S11317A0C6011F91089561E081E00E943D018823F4
S11317B0E9F48FB7F894282F33278091ED019091A5
S11317C0EE01892B11F02FBF20C081E090E09093AF
S11317D0EE018093ED012FBFDD9A0E94AB0324E15B
S11317E030E040E050E00E9468040FC062E081E015
S11317F00E945701882319F089E090E0089561E080
S113180081E00E945701882319F080E090E0089558
S113181085E090E00895CF92DF92EF92FF920F93CC
S11318201F93CFB6F894DD240E947000DC01CB0135
S113183066E470E00E94DF192BE0E22EF12CE80E42
S1131840F91EF0924903E09248030E94AB0300277B
S11318501127A80197010E946804CFBE1F910F9120
S1131860FF90EF90DF90CF9008951F93CF93DF9375
S11318708FB7F894C82FDD271C2F8091F201909127
S1131880F3010897C9F489E00E94760683E00E9478
S11318908607C09A81E090E09093F3018093F2016F
S11318A08FB7F894992723E02093EC018FBF84E04D
S11318B00E94C601CFBF30C0C09880914C038823DA
S11318C011F085E001C084E00E94760683FD09C022
S11318D080E00E94760683FF04C085E090E020E06B
S11318E003C083E090E021E09093F3018093F20140
S11318F0C09A1FBF222341F01092FC0183E00E9492
S113190086070E940B0C08C00E94AB0320E431E060
S113191040E050E00E946804DF91CF911F91089548
S113192078941F920F920FB60F9211241F932F9346
S11319303F934F935F936F937F938F939F93AF9353
S1131940BF93EF93FF9387B78F7E87BF78941FB7BA
S1131950F8948091480290914902A0914A02B09172
S11319604B020097A105B10509F051C08091F20125
S11319709091F3018530910561F18630910530F441
S11319808330910549F0049781F51AC08730910599
S1131990F1F0089751F514C0869B0FC084E090E0E5
S11319A09093F3018093F2010E94AB0327E030E0AF
S11319B040E050E00E94680418C00E940B0C15C05F
S11319C00E946706882389F40E94350C0EC080E0CB
S11319D00AC089E00E94760681E00E94C40483E084
S11319E00E94860787E00E94BC0B8091ED019091D4
S11319F0EE01019771F482E090E09093EE01809300
S1131A00ED01DE98DE9A80E00E940F0602C00E947B
S1131A10C803812F99278FBFFF91EF91BF91AF9199
S1131A209F918F917F916F915F914F913F912F91F2
S1131A301F910F900FBE0F901F901895EF92FF9279
S1131A400F931F93CF93DF938B0180915502909155
S1131A50560286FF40C18F7B8F3309F08EC1C0913F
S1131A60F801D091F9015881509327028091250201
S1131A70909126028530910509F443C08630910582
S1131A8009F48AC0029709F01FC185E090E09093A1
S1131A9026028093250240911302852F99270196EF
S1131AA0242F3327281739074CF1B79906C00E990C
S1131AB004C0451B415040931302409127024A320F
S1131AC0E8F44423A1F0BE016F5F7F4F483018F063
S1131AD047E050E007C086E090E0909326028093B0
S1131AE02502552780E090E00E94670246C11092CB
S1131AF03D02C09A84E00E948607E3C00E94090860
S1131B003CC186E090E09093260280932502809168
S1131B104002882309F439C08091A4028823A9F5DE
S1131B20898185FF32C08F814E812FB7F894332786
S1131B3060915102709152022FBF9927982F8827E4
S1131B405527842B952B8617970759F08F812E8163
S1131B509927982F88273327822B932B8F5F9F4FAA
S1131B60A1F489818770813081F4C09AC0988AE099
S1131B700E947606C09AC098409127024750289642
S1131B80BE018FE30E949106F8C04091270247509E
S1131B9055272896BE01A6CFC09A80912B02882390
S1131BA039F484E00E94860780912B02882311F087
S1131BB0B7990AC00E9B08C090913C03992321F069
S1131BC0809127028B3038F48091F8019091F901CB
S1131BD00E949C033DC0913001F5E0914003FF2732
S1131BE0EE0FFF1FEE0FFF1FE851FD4F20813181E3
S1131BF042815381E091F801F091F90121ABBB27B7
S1131C00A52F942F832F80ABCA01AA27BB2787A7B0
S1131C10252F33274427552726A78091400399274A
S1131C20019668E070E00E94F3198093400380916C
S1131C303C03815080933C03882351F08091F80148
S1131C409091F9010E949C031092400310923C036E
S1131C5080912702FE01E80FF11D808187FF31C0CA
S1131C60012B79F169816770E091F801F091F90134
S1131C70623019F5A0914102B0914202109709F126
S1131C808091F2019091F3010797D9F4ED019B81C2
S1131C9083819817B1F487B78F7E87BF908181E0E5
S1131CA08CA7E90FF11D8291319688A780818F77E7
S1131CB089A780E00E94BC0B04C0613011F48BE062
S1131CC02AC00E94D40759C010923D02C09A84E0F1
S1131CD00E94860752C08E3309F04FC0C09A80918B
S1131CE0F2019091F3010897C9F4C09889E00E9429
S1131CF07606C09A83E00E94860781E090E0909384
S1131D00F3018093F2018FB7F894992723E020938D
S1131D10EC018FBF84E00E94C6012FC080914C0368
S1131D20882349F484E090E09093F3018093F201D6
S1131D300E94350C22C083E00E94860783E090E075
S1131D409093F3018093F2010E947000DC01CB01B7
S1131D5066E371E00E94DF193BE0E32EF12CE80E0C
S1131D60F91EF0920E02E0920D020E94AB030027CE
S1131D701127A80197010E946804DF91CF911F9158
S1131D800F91FF90EF9008951F920F920FB60F924C
S1131D9011242F933F934F935F936F937F938F936C
S1131DA09F93AF93BF93EF93FF932FB1E09196026C
S1131DB0F0919702309739F080916C0290916D0206
S1131DC0E80FF91F208380916C0290916D020196B7
S1131DD090936D0280936C0280E00E946E014091AA
S1131DE0FA015091FB0180916C0290916D0284176D
S1131DF0950718F40E94F9011CC060919602709135
S1131E009702809146039091470310929702109293
S1131E10960210924703109246031092FB0110920F
S1131E20FA0110926D0210926C022FB120E00E9410
S1131E301E0DFF91EF91BF91AF919F918F917F9173
S1131E406F915F914F913F912F910F900FBE0F9023
S1131E501F901895AF92BF92CF92DF92EF92FF92AC
S1131E600F931F93CF93DF93CDB7DEB7C255D04006
S1131E700FB6F894DEBF0FBECDBF873009F43AC168
S1131E80883098F4833009F4BCC0843038F481304D
S1131E9009F44EC0823008F061C020C0853009F4D6
S1131EA007C1863008F01FC1B2C08B3009F44FC29D
S1131EB08C3038F4893009F413C28A3008F033C204
S1131EC052C18D3009F47EC48D3008F448C48E307C
S1131ED009F4D0C48F3009F054C5F5C4809141038E
S1131EE0882309F44EC590E011E020914103812F2D
S1131EF08223C1F0E92FFF27EE0FFF1FE259FD4FA8
S1131F004081518111821082812F80952823209352
S1131F104103992339F463E0CA010E94DB0A110FDB
S1131F2091E0E3CF9F5F983008F02BC5110FDDCF10
S1131F3010912301E12FFF27EE0FFF1FE259FD4F00
S1131F40E080F180118210820E94CE09112309F0F1
S1131F5018C561E0C7010E94DB0A13C50FB7F894E6
S1131F60112781E00E94C40441E0E42EF12CF09298
S1131F70F301E092F2011092F40110921402109213
S1131F8029020FBF0FB7F89411270E949003F09213
S1131F902602E092250210923D0289B78F7B89BF09
S1131FA080E488BF8AB780628ABF8AB78F7E8ABF7F
S1131FB089B7806489BF0FBF8FB7F894082F1127A2
S1131FC08091ED019091EE01049719F483E00E9451
S1131FD076060FBF0FB7F8941127C09A80E00E94CD
S1131FE086070FBF8FB7F894992722E02093A002A9
S1131FF08FBF4AEF50E060E070E081E00E94D502BC
S1132000C0C48FB7F89499271092A00271C08FB7FB
S1132010F8949927F090EC018FBF63E081E00E946F
S11320205701882359F10FB7F89411271092F3013F
S11320301092F20187B78F7E87BF87B78F7D87BFE6
S113204083E00E948607C09A0FBF0FB7F894112748
S113205010922602109225020E949003C09A89B71A
S11320608F7B89BF0FBF1092EE011092ED01DE98B5
S1132070DD98DE9A83E00E94C60107C08FB7F8940A
S1132080992722E02093A0028FBF00915B02109158
S11320905C020E9488028091420390914303892B41
S11320A009F06FC48FEF80932B014F2DB80102C448
S11320B08FB7F894282F3327122F80914A0388234F
S11320C009F581E080934A038091ED019091EE013E
S11320D0049721F481E00E940F0603C086E00E9469
S11320E0C6011FBF4EC48FB7F894992710924A03B4
S11320F08FBF47C48FB7F894282F33278091EF01FF
S1132100882311F02FBF3DC42FBF80B3992736E039
S1132110969587953A95E1F7182F1170909153028F
S1132120809154028917D9F01917C9F484E090E01A
S11321309093EE018093ED018FB7F894992721E0F5
S11321402093EF018FBF60E070E08DE10E941A08D8
S11321500E949405C09AC09882E00E94C601109320
S1132160540287E06DC08FB7F89499271091240129
S11321708FBF123009F467C0133030F4112359F0C3
S1132180113009F0FEC348C0133009F476C014308E
S113219009F0F7C3A2C0C0988FB7F894082F11278D
S11321A08091ED019091EE010297A1F583E090E01A
S11321B09093EE018093ED0168E170E08DE10E945F
S11321C01A0881E0809353021092EF0180B399279B
S11321D026E0969587952A95E1F781709070809313
S11321E0540287E00E94C60181E00E9476066FE7F0
S11321F072E08CE10E941A080E947B080E94410848
S113220066E57AE287E10E941A086FEF70E885E1DB
S11322100E941A080FBFB5C3C09886E00E947606D4
S11322200E947B080E9441080E949405C09AC098AD
S113223083E00E947606C09A81E00E94860786E0C9
S11322400E94C6019EC3C0988FB7F894082F112727
S113225060E080E00E945701882311F00FBF0AC09C
S11322600FBF83E50E94ED0180E00E94ED0180E054
S11322700E94ED01C09A82E02DC08FB7F89499278F
S11322802091F2018FBF243039F0283041F0223000
S113229001F50E948C0875C30E94350C72C3C09866
S11322A089E00E947606C09A83E00E9486078FB771
S11322B0F894992721E030E03093F3012093F20160
S11322C08FBF8FB7F89499271093EC018FBF84E0E8
S11322D0B7CF83E00E94860754C30E94C30651C34C
S11322E00FB7F89411274091FA015091FB016091C6
S11322F09602709197028091460390914703109241
S1132300970210929602109247031092460310927D
S1132310FB011092FA0110926D0210926C0220E0FF
S11323200E941E0D77CF2FB7F894332780912C028B
S11323308093270182E08093F1012FBF80912701D0
S1132340882309F01EC3B89AC09888E079CFA09179
S1132350F801B091F9011C919D01210F311DF90182
S11323608081881F8827881FFD0183A7F901808148
S11323708F77FD0181A721503040F9018081FD0153
S113238080A7A091F801B091F901FD0132818FB7C6
S1132390F894992720912A028FBF222309F490C030
S11323A0832F992796958795969587958370907036
S11323B08230910541F5878146812FB7F894332700
S11323C060915102709152022FBF9927982F88274C
S11323D05527842B952B8617970719F481E090E0F5
S11323E06CC0FD018781268140E050E09927982F39
S11323F088273327822B932B8F5F9F4F11F441E063
S113240050E0CA015AC0039709F0A0C19E012F5F92
S11324103F4F45EA52E088E0FA010190AF01F9012B
S113242001929F018150C1F79E012F5D3F4FAE0184
S11324304F5F5F4F88E0FA010190AF01F90101920B
S11324409F018150C1F79E01275F3F4FAE014F5D51
S11324505F4F88E0FA010190AF01F90101929F01F9
S11324608150C1F79E012F5E3F4FAE01475F5F4F22
S113247088E0FA010190AF01F90101929F018150B6
S1132480C1F79E01275E3F4FAE014F5E5F4F88E06C
S1132490FA010190AF01F90101929F018150C1F746
S11324A048E050E0BE01675E7F4FCD0106960E9472
S11324B05C1A892B09F04AC103C0882309F446C178
S11324C01D3008F443C1C090F801D090F901F60121
S11324D02281822F992736E0969587953A95E1F7E0
S11324E0039719F468E070E002C062E070E0822FA4
S11324F099279695879596958795837090700397FD
S113250019F488E090E002C082E090E026E030E038
S1132510C20ED31E40E050E020E030E0F601E80FA8
S1132520F91F8AEF9FEFC80ED91E05C08191480F8D
S1132530511D2F5F3F4F26173707C4F3F601638100
S11325408FEF809344038FB7F894782F20E030E026
S1132550E1E0F2E0808191818417950731F4828172
S1132560861709F4B8C0209344032F5F3F4F339676
S11325702430310579F77FBF909144033FB7F89435
S11325809F3F21F08091F501891799F42091F5017D
S1132590822F9927FC01EE0FFF1FE80FF91FEF5F51
S11325A0FD4F5183408362832F5F23702093F50195
S11325B00CC0892F9927FC01EE0FFF1FE80FF91FAC
S11325C0EF5FFD4F518340836283832F99278FBF31
S11325D00FB7F8941127C6010E94F900FC019081FD
S11325E00FBFF60183A5882309F4ACC09F3309F01B
S11325F0A9C0878146812FB7F894332760912801B9
S1132600709129012FBF9927982F88275527842B4C
S1132610952B8617970761F0878126819927982F34
S113262088273327822B932B8F5F9F4F09F08AC013
S1132630F6018385863009F085C08601045F1F4F4B
S1132640878126819927982F88273327822B932BDC
S11326508F5F9F4F31F58091EA01882311F5E09156
S11326602101F0912201EE7FEA52FE4F60817181D7
S1132670C6010F960E94701A892B99F4F601818580
S113268020859927982F88273327822B932B909383
S113269099028093980281E08093EA010E94370AAC
S11326A051C0F60187812681409121015091220178
S11326B09927982F88273327822B932B84179507E4
S11326C061F4F8018081813041F4809183028D7F2F
S11326D08093830237C07FBF35C0F601878126818E
S11326E09927982F88273327822B932B84179507B4
S11326F049F5F8018081823029F58789208D992751
S1132700982F88273327822B932B909368028093EA
S11327106702818D228D9927982F88273327822B52
S1132720932B90936A02809369020E94AE02AB01DC
S1132730BC0191E0E92E00E61AEE20E030E083E0EF
S11327400E948F02D092F901C092F8018FB7F894D9
S1132750992710923D028FBF0E94D40712C1809125
S11327602802882361F52091E4023091E50240912A
S1132770E6025091E702EFB7F894FF2760919B02BD
S113278070919C0280919D0290919E02E0900F02B4
S1132790F090100200911102109112026E0D7F1D33
S11327A0801F911FEFBF2093E4023093E502409312
S11327B0E6025093E702109228020E9476030E94D8
S11327C0AE0243C00E94AE025B016C018FB7F89465
S11327D0992710926B028FBF8FEFE82E8FEFF82EA0
S11327E08FEF082F8FE7182F60E0E2E7F2E0808593
S11327F081FF1CC080819181A281B381A6019501D2
S1132800281B390B4A0B5B0BDA01C9012481358182
S113281046815781281B390B4A0B5B0B2E153F054C
S1132820400751071CF479018A0161E0399632E0CE
S1132830E639F307E1F6662309F4A3C01E141F0466
S1132840100611062CF0C601B5010E943B0B99C07D
S1132850E092E402F092E5020093E6021093E702AC
S113286081E080932802A8019701C601B5010E9466
S1132870760387C09091470280912B01981709F441
S113288080C090932B019923D1F40091F60110910B
S1132890F70160915902C8010E94D208482F5527B8
S11328A0442309F46EC08FEF80932B016091F601ED
S11328B07091F701F80183850E941E0B62C08FEFAF
S11328C080932B015EC00E947000DC01CB016AE0A2
S11328D070E00E94DF19833091051CF460E071E020
S11328E005C0863091052CF469E071E0CE0189962B
S11328F00BC09E01275D3F4F09971CF461E171E015
S113290002C069E171E0C9010E94791ADE01D7961B
S1132910FE01B9968EE001900D928150E1F7DE013F
S1132920AB5BBF4FFE01F7968EE001900D92815094
S1132930E1F7ADE2B2E0FE01EB5BFF4F8EE0019008
S11329400D928150E1F78091EB01882321F481E01D
S11329508093EB010CC01092EB010E947C0A8091E1
S1132960EB01882321F481E08093EB0104C01092F1
S1132970EB010E947C0A0E9470007CAB6BAB0E944E
S11329807000CE5ADF4F0FB6F894DEBF0FBECDBF36
S1132990DF91CF911F910F91FF90EF90DF90CF9037
S11329A0BF90AF90089580913D038F3FB1F0282FE1
S11329B03327F901EB5EFD4F808180933D038F3F08
S11329C011F480934B038FEF80832F3F31F0822FDC
S11329D00E942A0F81E090E0089580E090E008953D
S11329E01F93CF93DF93CDB7DEB7E0970FB6F8947C
S11329F0DEBF0FBECDBF1FB7F89440E150E06FEFCC
S1132A0070E085E192E00E94691A8FEF80933D03A4
S1132A1080934B0381E08EBD88E080BF83E083BF59
S1132A208CB59DB54AE72CB53DB52817390708F490
S1132A304150442311F0C901F6CF92B782B78917E8
S1132A40E9F32CB53DB592B782B78917E9F38CB594
S1132A509DB5821B930B409675E0969587957A9564
S1132A60E1F790933F0380933E0313BE83B78EBD7B
S1132A708EB580BF12BE1DBC1CBC8FEF86BF86B74F
S1132A8080937C0080B7992787709070892BD1F749
S1132A90D29AD19AD09ADA9AD99AD89A15BA8FEF4B
S1132AA084BBD498DC981DBC1CBC87B7846087BFEA
S1132AB08EB5887F84608EBD0E94D3148823E1F78D
S1132AC080912101909122010196AA27BB2780932E
S1132AD0430290934402A0934502B09346028FEFC1
S1132AE080933B02E1E0F2E08FEF9FEF91838083DC
S1132AF01282339622E0ED30F207C1F70E94700093
S1132B006093E30280912101909122010196AA270A
S1132B10BB278093430290934402A0934502B09351
S1132B20460280B7886080BF8BE083BF86EE81BF9A
S1132B3087B7826087BF0E94F30288E093E0909396
S1132B40F9018093F8018E98B89A8C988FEF80934E
S1132B504C0210929F021092A0021092A1021092B5
S1132B60A202B89AD69AD59A8FB7F8949927209149
S1132B702801309129018FBF3093520220935102D2
S1132B800E94D70429A73AA74BA75CA76DA77EA7E5
S1132B908FA798ABDE019196FE01B99688E001906B
S1132BA00D928150E1F7DE015196FE01B19688E065
S1132BB001900D928150E1F7DE015996FE01719664
S1132BC088E001900D928150E1F7A5EAB2E0FE01A0
S1132BD0799688E001900D928150E1F780912A0165
S1132BE0992790933F0280933E028FE180939A024B
S1132BF08AE18093E1020E94D70429A73AA74BA750
S1132C005CA76DA77EA78FA798ABDE019196FE0106
S1132C10B99688E001900D928150E1F7DE0111969A
S1132C20FE01B19688E001900D928150E1F7DE013A
S1132C301996FE01319688E001900D928150E1F7DA
S1132C40A5EAB2E0FE01399688E001900D92815028
S1132C50E1F7A5EAB2E0FD0137969C9180818D935E
S1132C609083319782E0E83AF807B9F781E08093DE
S1132C702A0210924503809340021092A4020E94FB
S1132C80D3148823E1F7812F99278FBF78940E946A
S1132C90D30B8FB7F894482F55274BC087B7992784
S1132CA083709070892B19F4E5E0F0E013C080B7CD
S1132CB0992787709070892BD1F781B792B7891BB8
S1132CC08C3030F082B7853F18F4E3E0F0E002C0C6
S1132CD0E2E0F0E087B7887BC1F480917D008B7FD0
S1132CE0A1F46E9912C08AB190919A00892B8871CF
S1132CF061F48091740082FD08C0379B03C081E0B9
S1132D0090E005C085E090E002C080E090E025B747
S1132D108E1708F4E82FFF27E457FF4FE491237E32
S1132D202062E22BE5BF78948895F89485B78F7D6F
S1132D3085BF80913D038F3F09F4B0CF282F3327FF
S1132D40F901EB5EFD4F808180933D038F3F11F4C9
S1132D5080934B038FEF80832F3F09F49FCF4FBFA6
S1132D60822F0E942A0F95CF78941F920F920FB64C
S1132D700F9211242F923F924F925F926F927F9203
S1132D808F929F92AF92BF92CF92DF92EF92FF9277
S1132D900F931F932F933F934F935F936F937F935F
S1132DA08F939F93AF93BF93CF93DF93EF93FF934F
S1132DB0C6B5D7B58FB7F894282E0E94AB039B01F4
S1132DC02C1B3D0B442755272B013C01421A530A67
S1132DD0640A750A8091F2019091F301853091059E
S1132DE021F0069709F0E0C0BFC086E090E0909320
S1132DF0F3018093F20131E0332E30923C021092C1
S1132E00F40180E00E94C404E0914102F091420286
S1132E1041AABB27A72D962D852D80ABC301AA27D8
S1132E20BB2787A7872D9927AA27BB2786A7E091C9
S1132E304102F091420285A5882309F484C060818F
S1132E40655077274F01860E971EF4012081E1809B
S1132E508281A3809927AA27BB27BA2FA92F982F4D
S1132E608827332744275527522F442733272227DF
S1132E70FF24002711278701FF24EE242E293F2950
S1132E80402B512BBB24CC24DD242A293B294C295B
S1132E905D29822B932BA42BB52B84199509A609A4
S1132EA0B7098383292F3A2F4B2F552722839D015E
S1132EB04427552721838B2F9927AA27BB27808353
S1132EC0C09824E0A40180E090E00E948304C09AAA
S1132ED0F4012081E1808281A3809927AA27BB275E
S1132EE0BA2FA92F982F8827332744275527522FE5
S1132EF0442733272227FF24002711278701FF2493
S1132F00EE242E293F29402B512BBB24CC24DD2435
S1132F102A293B294C295D29822B932BA42BB52BE1
S1132F20840D951DA61DB71D8383292F3A2F4B2F82
S1132F30552722839D014427552721838B2F9927C9
S1132F40AA27BB278083E0914102F091420281814C
S1132F5085FF02C03092140283E00E94860787B77F
S1132F608F7E87BF84997AC010923C0281E00E94D0
S1132F70C404E0914102F0914202818185FF0FC0B7
S1132F8087E090E09093F3018093F2010E94AB03F9
S1132F9020E031E040E050E00E94680403C080E09B
S1132FA00E94BC0B849B5AC08091F401882391F544
S1132FB080913C02882371F511E010933C020E9439
S1132FC0C40480B320913C03283098F4E09140037A
S1132FD0E20FFF27E770F070EE0FFF1FEE0FFF1FE9
S1132FE0E851FD4F40825182628273822F5F2093A9
S1132FF03C031093F401D0935802C0935702849970
S11330002DC09927E4E096958795EA95E1F7182F66
S1133010117001C010E080913C028130F9F41092EB
S11330203C020E94C4041092F4011123B9F480916B
S1133030570290915802C81BD90B2A9778F48091B3
S11330403C03882319F0815080933C038091410212
S113305090914202009711F00E949C032FBEFF91B1
S1133060EF91DF91CF91BF91AF919F918F917F911C
S11330706F915F914F913F912F911F910F91FF900D
S1133080EF90DF90CF90BF90AF909F908F907F9004
S11330906F905F904F903F902F900F900FBE0F90C6
S11330A01F901895ACE2B0E0E8E5F8E10C94251A1D
S11330B0222E332E442E552E662E772E882E992EB0
S11330C0FE013196A8E01192AA95E9F729823A8285
S11330D04B825C826D827E828F829886FE01399655
S11330E0B8E01192BA95E9F7A986BA86CB86DC8650
S11330F0ED86FE860F87188B89819A81AB81BC810E
S113310089A79AA7ABA7BCA77C018D018FEF9FEF7E
S1133110A0E0B0E0E822F9220A231B2389A59AA59E
S1133120ABA5BCA51D014424552489859A85AB858E
S1133130BC858DA39EA3AFA3B8A75C016D018FEFDF
S11331409FEFA0E0B0E0A822B922CA22DB228DA121
S11331509EA1AFA1B8A53D0188249924C801B70157
S1133160A60195010E94061A69A37AA38BA39CA3C6
S1133170C801B701A40193010E94061A7B018C01C6
S1133180C201B101A60195010E94061A5B016C01FE
S1133190C201B101A40193010E94061A3B014C0132
S11331A0EA0CFB1C0C1D1D1D89A19AA1ABA1BCA19D
S11331B09D01442755272E0D3F1D401F511F2A15E1
S11331C03B054C055D0540F480E090E0A1E0B0E0F3
S11331D0680E791E8A1E9B1ECA01AA27BB27860D6C
S11331E0971DA81DB91D8D8F9E8FAF8FB8A3A90100
S11331F03327222789A19AA1ABA1BCA1A070B070EA
S1133200280F391F4A1F5B1F298F3A8F4B8F5C8F02
S1133210A98CBA8CCB8CDC8CED8CFE8C0F8D18A118
S1133220FE01719698E011929A95E9F7ED8AFE8A6B
S11332300F8B188F2D813E814F8158856DA17EA102
S11332408FA198A50E94061A3B014C012D853E854D
S11332504F85588969A57AA58BA59CA50E94061A55
S11332602D893E894F89588D260F371F481F591FB6
S1133270260D371D481D591D2D8B3E8B4F8B588FA6
S11332806D887E888F88988C2A2D3B2D4C2D5D2D42
S1133290662D772D882D992DE2E1AC960C94411A78
S11332A0A0E1B0E0E6E5F9E10C94251A222E332ED4
S11332B0442E552E662E772E882E992E002309F43F
S11332C066C088E0FE01319611928A95E9F7298358
S11332D03A834B835C836D837E838F829887E0E29D
S11332E0E01B1E16CCF52D813E814F815885602F41
S11332F0772767FD7095DA01C901062E04C0B695DB
S1133300A795979587950A94D2F78D879E87AF875F
S1133310B88B04C0220F331F441F551FEA95D2F700
S113332089819A81AB81BC8104C0B695A795979594
S113333087956A95D2F7282B392B4A2B5B2B298743
S11333403A874B875C8729843A844B845C846D84F8
S11333507E848F8498881BC01D861E861F86188ACB
S11333602E2F332727FD3095309521953F4F8D81A2
S11333709E81AF81B88504C0B695A795979587952A
S11333802A95D2F789879A87AB87BC87DCCF222D11
S1133390332D442D552D662D772D882D992DE2E161
S11333A060960C94411A991B79E004C0991F9617F2
S11333B008F0961B881F7A95C9F780950895AA1B73
S11333C0BB1B51E107C0AA1FBB1FA617B70710F00C
S11333D0A61BB70B881F991F5A95A9F7809590953E
S11333E0BC01CD01089597FB092E07260AD077FD6D
S11333F004D0E5DF06D000201AF4709561957F4F64
S11334000895F6F7909581959F4F0895629FD00196
S1133410739FF001829FE00DF11D649FE00DF11D8B
S1133420929FF00D839FF00D749FF00D659FF00D3A
S11334309927729FB00DE11DF91F639FB00DE11D27
S1133440F91FBD01CF01112408952F923F924F928D
S11334505F926F927F928F929F92AF92BF92CF9220
S1133460DF92EF92FF920F931F93CF93DF93CDB729
S1133470DEB7CA1BDB0B0FB6F894DEBF0FBECDBFA1
S113348009942A88398848885F846E847D848C8472
S11334909B84AA84B984C884DF80EE80FD800C817B
S11334A01B81AA81B981CE0FD11D0FB6F894DEBF5E
S11334B00FBECDBFED010895FB01DC0104C08D9169
S11334C00190801921F441505040C8F7881B990B92
S11334D00895DC0101C06D9341505040E0F7089518
S11334E0FB01DC018D91019080190110D9F3990B36
S11334F00895FB01DC0101900D920020E1F708958D
S1053500FFCFF7
S11335025354414E44494E470057414C4B494E4750
S11335120052554E4E494E470046414C4C494E4787
S113352200010001FFFFFFFF010022FFFFFF4246EF
S113353242443264335673424E4973664A4F3638B4
S113354264490078723367427468766468764668C0
S11335527642366948554800796778626242623732
S113356255555955594769756269756800736163A0
S1133572757963616762374E756E307539306D39AE
S11335824900494D494D6930396939696F696E6835
S11335926276646335630071363576373674623821
S11335A26E39387530396D75396E38006E757962D9
S11335B23862796E39387569796938753975424670
S11335C20042443264335673424E4973664A4F365C
S11335D23864496279002E01430158016D01820168
S10935E29701AC01C101D8
S9030000FC
